:020000040800F2
:10000000D80900207D2300087D0200087F02000837
:1000100083020008870200088B020008000000002D
:100020000000000000000000000000008F02000837
:10003000910200080000000093020008C32100089C
:10004000972300089723000897230008B722000889
:100050009723000897230008972300089723000898
:100060009723000897230008972300089723000888
:100070009723000897230008972300089723000878
:100080009723000897230008972300089723000868
:100090009723000897230008972300089723000858
:1000A0009723000897230008972300088F0900086A
:1000B00097230008972300088B0700089723000860
:1000C0009723000897230008972300089723000828
:1000D00097230008B71B00084D1E0008011D0008EB
:1000E0009723000897230008972300089723000808
:1000F00097230008972300089723000897230008F8
:1001000097230008972300089723000897230008E7
:1001100097230008972300089723000897230008D7
:1001200097230008972300089723000897230008C7
:1001300000F002F800F063F80AA090E8000C824496
:100140008344AAF10107DA4501D100F058F8AFF273
:10015000090EBAE80F0013F0010F18BFFB1A43F0A5
:10016000010318479C560000BC56000010F8013BE4
:100170000A4413F0030408BF10F8014B1D1108BF17
:1001800010F8015B641E05D010F8016B641E01F8C5
:10019000016BF9D1002D15D010F8014B03F00C03C1
:1001A0000C2BA1EB04040ABF10F8013BA4EB831451
:1001B000A4EB032405F1010314F8016B5B1E01F8A5
:1001C000016BF9D5914238BF10F8013BD1D370478C
:1001D0000023002400250026103A28BF78C1FBD850
:1001E000520728BF30C148BF0B607047632904F035
:1001F000AE82002070471FB51FBD10B510BD04F0C2
:10020000D9FA1146FFF7F7FF00F012F804F0F7FAF9
:1002100003B4FFF7F2FF03BC01F04AFC10B5012163
:10022000084602F055FC0121124802F066FA10BDA2
:10023000FFF7F4FF01F036FC4FF4165001F08BFD90
:100240004FF4165001F0DFFC00F03EFA01F0D5FE4D
:1002500000F010F901F07EFF4FF40051064802F063
:100260002AFAC82002F07EF800F0C0FD01E001F09B
:1002700062FBFCE70002300000100140704700BF45
:10028000FEE700BFFEE700BFFEE700BFFEE77047E6
:10029000704770470CB50020019000906C480068D2
:1002A00040F480306A49086000BF6948006800F483
:1002B000003000900198401C0190009818B90198F6
:1002C000B0F5A06FF1D16248006800F4003010B1C1
:1002D0000120009001E0002000900098012843D107
:1002E0005C48006840F010005A4908600846006801
:1002F00020F0030008600846006840F00200086033
:10030000534840685249486008464068486008467B
:10031000406840F4806048600846406820F47C10E3
:1003200048600846406840F4E810486008460068A5
:1003300040F08070086000BF4548006800F0007021
:100340000028F9D04248406820F003004049486046
:100350000846406840F00200486000BF3C484068E2
:1003600000F00C000828F9D10CBD10B5FFF792FF82
:1003700010BD10B53648006840F0010034490860EF
:1003800008464068344908403149486008460068DA
:10039000324908402E4908600846006820F4802051
:1003A00008600846406820F4FE0048604FF41F00D3
:1003B0008860FFF7DAFF4FF000602949086010BD40
:1003C00010B5002100200022214B5B6803F00C01D6
:1003D00021B1042906D0082928D107E0214B224C5D
:1003E000236027E01F4B204C236023E0184B5B6801
:1003F00003F47010164B5B6803F48032022303EBA6
:10040000904022B9194B4343174C23600DE0104B29
:100410005B6803F4003323B1144B4343124C236055
:1004200003E0104B4343104C236003E00D4B0E4C94
:10043000236000BF00BF064B5B68C3F303130C4C83
:10044000E15C094B1B68CB40074C236010BD0000EA
:1004500000100240002002400000FFF8FFFFF6FEFF
:1004600008ED00E000127A000800002000093D00BD
:100470000C00002008B50121102002F029FB1020FB
:100480008DF8030002208DF802000003ADF8000093
:100490006946094802F060F81820ADF80000694686
:1004A000064802F059F80821044802F002F9102128
:1004B000024802F000F908BD00100140000C0140A4
:1004C00000B589B00121C80202F002FB01210D2014
:1004D00002F0FEFA4FF4E060ADF8040018208DF849
:1004E000070003208DF8060001A9AB4802F034F89C
:1004F0004FF46040ADF8040001A9A84802F02CF8C0
:1005000041F61F40ADF81C000120ADF81800002096
:10051000ADF81E00ADF81A008DF8200006A9A0481D
:1005200002F01CFE6020ADF808000120ADF80A00C2
:100530000420ADF80C009B480088ADF80E000020A8
:10054000ADF81000ADF812004FF48070ADF8140053
:10055000ADF8160002A9924802F03DFE082190482D
:1005600003F088FA02A98E4802F077FE08218C4831
:1005700003F089FA02A98A4802F0BCFE08218848E3
:1005800003F08EFA0121864803F044FA0122022189
:10059000834803F05AF901220421814803F055F9F8
:1005A000012208217E4803F050F94FF4C06001F0A9
:1005B00005FF1B208DF8000000208DF801000620AB
:1005C0008DF8020001208DF80300684601F0FBFE63
:1005D0000121734803F01EF90121714803F026F947
:1005E00009B000BD08B50121022002F07EFA012108
:1005F000042002F06DFA0121082002F069FA1820A7
:100600008DF8030003208DF80200C020ADF8000033
:100610006946614801F0A0FF0320ADF8000069467B
:100620005E4801F099FF08BD00B587B042F20F7037
:10063000ADF814008F20ADF810000020ADF81600C2
:10064000ADF8120004A9584802F088FD6020ADF80A
:1006500000000120ADF802000020ADF80800ADF860
:1006600006006946504802F0B6FD08214E4803F0E6
:1006700001FA0020ADF8060069464B4802F0EDFD96
:100680000821494803F0FFF90020ADF8060069464B
:10069000454802F02FFE0821434803F001FA0020EC
:1006A000ADF806006946404802F06FFE08213E485A
:1006B00003F0FFF901213C4803F0ACF901213A486D
:1006C00003F0A8F807B000BD10B5FFF78BFFFFF7E8
:1006D000ABFF10BD00B589B00121042002F005FA7E
:1006E0000121082002F0F4F902A801F0C0FFC020A7
:1006F000ADF8080004208DF80B0002A9274801F08E
:100700002BFF1E208DF8040000208DF8050002202C
:100710008DF8060001208DF8070001A801F053FEB6
:10072000224802F047FC06A803F044F80020ADF888
:1007300018004FF6FF70ADF81C000020ADF81E0049
:10074000ADF81A0006A9194802F008FD00231A4660
:100750000321164803F011F903A803F03EF8062020
:10076000ADF8140003A9114802F08BFF01210F48D6
:1007700003F016FB012211460C4803F066F8012134
:100780000A4803F047F809B000BD10B50121074839
:1007900003F006FB10BD000000080140000C014002
:1007A000002C0140800200200004004000080040AE
:1007B0002DE9F04104460D461549284604F0ACFEEB
:1007C000074604F029FE86B2304604F05DFE8046FE
:1007D000104904F0F1FC074604F01EFE86B234B165
:1007E000012C09D0022C0CD0032C0CD10AE031468C
:1007F000094803F0A7FA07E03146074803F0A4FAD6
:1008000002E001E000E000BF00BFBDE8F0810000B1
:100810007AC7B14000007A430004004008B50121C6
:10082000082002F055F910208DF8030003208DF800
:1008300002001820ADF800006946AB4801F08CFEBC
:100840001821A94801F037FF08BD00B589B0012182
:10085000C80202F03DF90121042002F039F94FF4F9
:100860001060ADF8140048208DF8170005A99F48C6
:1008700001F072FE4FF6FF70ADF80C004720ADF8A6
:1008800008000020ADF80E00ADF80A0002A9984853
:1008900002F064FC0C20ADF818000020ADF81A003E
:1008A0000120ADF81C000020ADF81E00ADF82000BE
:1008B00006A98F4802F0E5FE0020ADF81800ADF85B
:1008C0001A000120ADF81C000020ADF81E00ADF8A4
:1008D000200006A9864802F0D4FE1B208DF80400F3
:1008E00002208DF8050000208DF8060001208DF80B
:1008F000070001A801F067FD012213217C4802F0E6
:10090000A4FF01217A4802F085FF09B000BD10B5AF
:100910000821754801F0CDFE142001F0DBFC082110
:10092000714801F0C8FE7348007800F0800060B1A3
:1009300000BF00BF70480468AA20604342F21071F3
:1009400090FBF1F400206B490860204610BD10B503
:100950001021654801F0ADFE142001F0BBFC102110
:10096000614801F0A8FE6548007800F0800060B1A1
:1009700000BF00BF62480468AA20604342F21071C1
:1009800090FBF1F400205D490860204610BD10B5D1
:100990005848007800F0800000284CD101215448CC
:1009A00003F001FAD0B15348007800F04000A8B13C
:1009B0005048007800F03F003F280AD14D480068B9
:1009C00040F080004B4908604FF6FF704A490860CC
:1009D00004E048480068401C464908600221444839
:1009E00003F0E1F938B34348007800F0400078B1F3
:1009F0004048006840F080003E4908603C4803F0F1
:100A0000B3F93D4908600021394803F0B5F812E018
:100A1000002038490860384908600021344803F054
:100A20008DF93448006840F04000324908600221E6
:100A30002F4803F0A1F83148007800F0800000282A
:100A40004CD101212A4803F0AEF9D0B12B480078EF
:100A500000F04000A8B12948007800F03F003F288E
:100A60000AD12648006840F08000244908604FF60B
:100A7000FF702349086004E020480068401C1F49BB
:100A8000086010211A4803F08EF938B31B4800782B
:100A900000F0400078B11948006840F08000174924
:100AA0000860134803F069F91549086000211048EF
:100AB00003F0A8F812E0002010490860104908600F
:100AC00000210B4803F03AF90C48006840F0400060
:100AD0000A4908600221064803F094F813210448EB
:100AE00003F072F910BD0000000C01400008014045
:100AF000002C014084020020880200208C0200208B
:100B0000900200202DE9F74F8AB0074616460025CF
:100B10000020099000249F480168384603F0ACFD8E
:100B200070B19DA001F081F9384601F07EF9FF20F7
:100B300001F05FF9FF2001F05CF9FF2001F059F9A5
:100B4000B0460021404604F0B3FC04D2944930463C
:100B500004F0E2FC06469349304604F0DDFC06460C
:100B6000304604F059FC04460A20B4FBF0F100FBC7
:100B700011408D4911F800906420B4FBF0F100FBA6
:100B800011400A21B0FBF1F0874911F800A04FF4A1
:100B90007A70B4FBF0F100FB11406421B0FBF1F07E
:100BA0008149085C089042F21070B4FBF0F100FB40
:100BB00011404FF47A71B0FBF1F07B4911F800B0AD
:100BC0007A48B4FBF0F100FB114042F21071B0FB27
:100BD000F1F07549085C07907548B4FBF0F100FB33
:100BE00011407249B0FBF1F06F49085C2E2106906C
:100BF0000898CDE900B0CDE903A902916DA1714833
:100C0000DDE9062303F07AFC6F480B9903F006FD3B
:100C10000021404604F04CFC04D26CA16A4803F069
:100C2000FDFC03E06BA1684803F0F8FC65496648E9
:100C300003F0F4FC69A1644803F0F0FC624801F0A1
:100C4000F4F8FF2001F0D5F8FF2001F0D2F8FF20E2
:100C500001F0CFF85C4803F0C2FC0990002504E0E5
:100C60005F48405D584948556D1C09988542F7DB3F
:100C7000484807600DB0BDE8F08F2DE9FF5F0546DD
:100C80000026B1460127B2464FF07E5B284603F0AE
:100C9000A6FC8146A8782D283ED1A9F1020084B295
:100CA0002DE0701CC6B2285D2E2818D14FF0000828
:100CB00011E0584604F054FA4A4A4B4BCDE9000182
:100CC00004F024F8CDE9020103F0A6FD834608F103
:100CD00001001FFA80F8701E4045EADC0DE0295D36
:100CE000303901FB07F004F0CFFB5146039004F0CC
:100CF00063FA824607EB87004700601E84B2022C2D
:100D0000CFDC5946504604F007FC82462449504641
:100D100004F002FC824638E0A9F1020084B22DE022
:100D2000701CC6B2285D2E2818D14FF0000811E0C3
:100D3000584604F015FA2B4A2B4BCDE9000103F07D
:100D4000E5FFCDE9020103F067FD834608F10100EC
:100D50001FFA80F8701E4045EADC0DE0295D30394D
:100D600001FB07F004F090FB5146039004F024FAD5
:100D7000824607EB87004700601E84B2012CCFDC5F
:100D80005946504604F0C8FB8246504604B0BDE8C0
:100D9000F09F0000A4020020706167652000000041
:100DA000000080BF0000C84294020020A08601001D
:100DB00040420F0025632563256325632563256372
:100DC00025630000E90200209F0200202E74787441
:100DD0003D222D002E7478743D2200002200000078
:100DE000D00200209A9999999999B93F10B5FE4976
:100DF0000020FFF7DDFCFD490120FFF7D9FC10BD05
:100E00002DE9F041002400250027F94803F0E7FB15
:100E100006462320F7494855F54803F0E0FB06460F
:100E200002241DE0F248005D642813D12A21F14A12
:100E3000681C11540021A81C11542320EE49C855E8
:100E4000254605E07F1CEA48405DEB49C8556D1C0E
:100E5000B542F7DB6D1CE648005DE6494855641C69
:100E6000F01BA042DEDC0027E348FFF706FFE34962
:100E700008600846E2A10268E2A0FFF743FEDD48F1
:100E8000FFF7FBFEE04908600846E0A10268DDA02C
:100E9000FFF738FED84803F0A2FB0646002404E022
:100EA000DB48005DD4490855641CB442F8DBD148E6
:100EB00003F095FB0646002404E0D548005DCD49CB
:100EC0000855641CB442F8DBBDE8F0812DE9F04F11
:100ED00087B000260025CF4F4FF00108A946AA464B
:100EE00039460020FFF764FCC0490120FFF760FC91
:100EF000642001F037FAA4E0C74800780128FAD14D
:100F00000020C5490870C54840788DF81400C348D2
:100F100080788DF81500C148C0788DF81600BF485C
:100F200000798DF81700BD4840798DF81800BB484E
:100F300080798DF819001E21B84803F07BFB9DF8DD
:100F40001400FE2842D1B649384604F0B1FA1BD24B
:100F5000B8F1000F18D1384604F002F9B14AB24B8B
:100F6000CDE9000103F08AFCCDE9020103F054FC55
:100F7000074639460020FFF71BFCAC49384604F011
:100F800097FB01D24FF00108A949384604F090FBC5
:100F900057D2B8F1010F54D1384604F0E1F8A14A14
:100FA000A14BCDE9000103F0F1FFCDE9020103F00F
:100FB00033FC074639460020FFF7FAFB8B493846D9
:100FC00004F076FA3DD24FF000083AE09DF81500A3
:100FD0009DF8141040EA012004B29DF817009DF816
:100FE000161040EA012000B20490A4F1A00004B25F
:100FF00014F1030F05DD032C03DA09F101000FFAE8
:1010000080F9204604F028FA8A49039004F084FA13
:101010008346394604F0D0F807468149384604F043
:1010200047FB00D27E4F8249384604F041FA00D295
:101030007F4F39460020FFF7BBFBB9F1140F00DDED
:1010400000E059E700BF08217B4801F034FB642031
:1010500001F088F90821784801F02BFBDFF8DCA1CA
:101060006249504604F024FA01D2DFF880A15046CC
:1010700004F076F80022724BCDE9020103F044FF40
:1010800001D2DFF8C0A151460120FFF791FB0821F2
:10109000694801F010FB642001F064F908216648FA
:1010A00001F007FB1021644801F003FB17E0002664
:1010B00004E001F035F80544701C06B2052EF8DB9B
:1010C0000520B5FBF0F540F64850854204D31021C9
:1010D000594801F0F0FA03E0142001F043F9E6E783
:1010E00000BF642001F03EF90821534801F0E3FA03
:1010F000642001F037F908214F4801F0DAFA4FF483
:101100000051514801F0D5FA4FF4FA7001F02AF974
:101110004FF400514C4801F0CEFA3E490020FFF751
:1011200047FB32490120FFF743FB07B0BDE8F08FD2
:101130002DE9F04F87B000270026DFF8AC80B146DC
:10114000B246B346FFF752FEC82001F00BF9E4E0C7
:10115000314800780128FAD100202F4908702F4823
:1011600040788DF814002D4880788DF815002B48B4
:10117000C0788DF81600294800798DF817002748A7
:1011800040798DF81800254880798DF819001E21C6
:10119000224803F04FFA9DF81400FE2879D1204927
:1011A000404604F085F91BD2B9F1000F18D1404632
:1011B00003F0D6FF1B4A1C4BCDE9000103F05EFB98
:1011C000CDE9020103F028FB804641460020FFF7ED
:1011D000EFFA1E49404604F06BFA01D24FF00109C4
:1011E0001349404634E000000000AA4200007C425F
:1011F0005703002007030020F30200200000002016
:101200007433000032000000040000207434000039
:10121000D00200200000E642B40200203903002082
:101220000000EC429A9999999999E93F0000D642B9
:10123000000050420AD7233C000C014000800A43C2
:1012400000F0614000800F43001001400000DC42CC
:1012500004F02EFA61D2B9F1010F5ED1404603F0DD
:101260007FFFFE4AFE4BCDE9000103F08FFECDE982
:10127000020103F0D1FA804641460020FFF798FAB8
:10128000F849404604F014F947D24FF0000944E011
:10129000FFE79DF815009DF8141040EA012005B203
:1012A0009DF817009DF8161040EA012000B2049046
:1012B0009DF819009DF8181040EA012004B2A5F12C
:1012C000A00005B215F1030F05DD032D03DA0AF1C5
:1012D00001000FFA80FA284604F0BEF8E2490290B5
:1012E00004F01AF94146039003F066FF8046DF4997
:1012F000404604F0DDF901D2DFF87083DC49404656
:1013000004F0D6F801D2DFF8688341460020FFF7E9
:101310004FFABAF1280F00DD00E019E700BF0821FD
:10132000D44801F0C8F9642001F01CF80821D14824
:1013300001F0BFF9642001F015F80821CD4801F053
:10134000BAF9642001F00EF80821CA4801F0B1F999
:10135000642001F007F8A4F1140004B2DFF818B318
:10136000C82C0FDBDE2C0DDCA4F1C80004F074F8EF
:101370004FF07A51029004F0CFF8C049039003F087
:101380001BFF8346DE2C0EDDEB2C0CDCA4F1DE0013
:1013900004F062F8BA49029004F0BEF8B94903902B
:1013A00003F00AFF8346EB2C0FDDB4F5827F0CDCE3
:1013B000A4F1EB0004F050F8B349029004F0ACF84B
:1013C000AD49039003F0F8FE8346B4F5827F0FDD4C
:1013D000B4F5967F0CDCA4F5827004F03DF8AB49BF
:1013E000029004F099F8AA49039003F0E5FE8346C1
:1013F000A849584604F05CF801D2DFF898B2584684
:1014000003F0AEFE0022A44BCDE9020103F07CFD07
:1014100001D2DFF888B259460120FFF7C9F9082147
:10142000944801F048F9C82000F09CFF0821914839
:1014300001F03FF910218F4801F03BF917E0002738
:1014400004E000F06DFE0644781C07B2052FF8DBBF
:101450000520B6FBF0F640F64850864204D3102132
:10146000844801F028F903E0142000F07BFFE6E750
:1014700000BF4FF4FA7000F075FF08217D4801F0BD
:101480001AF9642000F06EFF08217A4801F011F982
:101490004FF40051824801F00CF94FF4487000F00D
:1014A00061FF4FF400517E4801F005F9FFF79EFC03
:1014B00007B0BDE8F08F2DE9F0477A4805687A4813
:1014C000D0F800A00026FFF791FC4FF4FA7000F06E
:1014D00049FF7649504604F0EBF812D8744950465B
:1014E00003F0E6FF0DD87149504604F013F9804629
:1014F0004FF07A5104F010F80746604903F05CFEA3
:1015000006466B49504604F0D3F811D2694950465B
:1015100003F0CEFF0CD86649504604F0FBF8804635
:10152000574903F0F9FF0746564903F045FE0646C2
:101530006049504604F0BCF811D25F49504603F0B0
:10154000B7FF0CD85B49504604F0E4F880464E499A
:1015500003F0E2FF0746484903F02EFE06465649CF
:10156000504604F0A5F811D25449504603F0A0FFAC
:101570000CD85149504604F0CDF88046434903F059
:10158000CBFF0746424903F017FE064629464C4862
:1015900004F0C0F805463549284604F089F800D221
:1015A000324D3349284603F083FF00D2304D39498C
:1015B000304603F07DFF00D2364E304603F0D0FDBA
:1015C00007460022344B03F09FFC00D2334E2946DD
:1015D0000020FFF7EDF831460120FFF7E9F8082178
:1015E000244801F068F84FF47A7000F0BBFE08213F
:1015F000204801F05EF810211E4801F05AF81BE067
:101600004FF0000906E000F08BFD044409F10100F1
:101610000FFA80F9B9F1050FF5DB0520B4FBF0F402
:1016200040F64850844204D31021124801F043F898
:1016300003E0142000F096FEE2E700BF4FF4FA60EA
:1016400000F090FE08210B4801F035F84FF47A7055
:1016500000F088FE0821074834E000009A99999923
:101660009999E93F000070420AD7233C0000EC4200
:1016700000005042000C0140000007430000FA4205
:101680001F856B3E00000243EC51383E5839B43D93
:1016900000000C4300007C4200F0614000800F43DA
:1016A000001001400400002000000020000048431A
:1016B00000005E4300006B4300008243000096433D
:1016C0000000AA4200F0F5FF4FF40051DE4800F0A0
:1016D000F0FF4FF4FA7000F045FE4FF40051DA4885
:1016E00000F0E9FFFFF782FBBDE8F0872DE9F04746
:1016F000D648D0F800900025FFF778FB4FF4FA7039
:1017000000F030FED249484603F0D2FF12D8D1494A
:10171000484603F0CDFE0DD8CD49484603F0FAFF08
:1017200080464FF07A5103F0F7FE0746CA4903F0AE
:1017300043FD0546C749484603F0BAFF11D2C749E1
:10174000484603F0B5FE0CD8C249484603F0E2FF14
:101750008046C34903F0E0FE0746C24903F02CFD72
:101760000546BE49484603F0A3FF11D2BE4948468C
:1017700003F09EFE0CD8B949484603F0CBFF8046E3
:10178000BA4903F0C9FE0746B94903F015FD0546FD
:10179000B549484603F08CFF11D2B649484603F0DC
:1017A00087FE0CD8B049484603F0B4FF8046B249E2
:1017B00003F0B2FE0746B14903F0FEFC0546B0490E
:1017C000284603F075FE00D2AD4D284603F0C8FC54
:1017D00007460022AB4B03F097FB00D2AA4D2946E7
:1017E0000120FEF7E5FF0821A84800F064FF4FF450
:1017F0007A7000F0B7FD0821A44800F05AFF1021CC
:10180000A24800F056FF17E0002604E000F088FC34
:101810000444701C06B2052EF8DB0520B4FBF0F47E
:1018200040F64850844204D31021984800F043FF0A
:1018300003E0142000F096FDE6E700BF4FF4FA60E5
:1018400000F090FD0821914800F035FF4FF47A70C8
:1018500000F088FD08218D4800F02BFF4FF4005167
:10186000794800F026FF4FF4FA7000F07BFD4FF44A
:101870000051754800F01FFFFFF7B8FABDE8F08788
:1018800070B5FFF7B3FA4FF4FA7000F06BFD8049C2
:101890000020FEF78DFF7F490120FEF789FF082118
:1018A0007A4800F008FF4FF47A7000F05BFD0821E1
:1018B000764800F0FEFE1021744800F0FAFE17E0B2
:1018C000002504E000F02CFC0444681C05B2052D42
:1018D000F8DB0520B4FBF0F440F64850844204D312
:1018E00010216A4800F0E7FE03E0142000F03AFD02
:1018F000E6E700BF4FF4FA6000F034FD08216348CA
:1019000000F0D9FE4FF47A7000F02CFD08215F48FA
:1019100000F0CFFE4FF400514B4800F0CAFE4FF4E8
:10192000FA7000F01FFD4FF40051474800F0C3FE6D
:10193000FFF75CFA70BD2DE9F04100240026002776
:1019400055480078012835D1002053490870534884
:101950004078012802D1FFF793FF1EE04F484078FE
:10196000022804D1FFF74CFAFFF7C0FE15E04B4800
:101970004078032804D1FFF743FAFFF79CFD0CE001
:1019800046484078042802D1FFF7D2FB05E04348DF
:101990004078052801D1FFF799FA404802F01FFE70
:1019A0000546002404E03E48005D3C490855641C9F
:1019B000AC42F8DBBDE8F08170B505461021334834
:1019C00000F077FE15E0002604E000F0A9FB0444D7
:1019D000701C06B2052EF8DB0520B4FBF0F4AC4217
:1019E00004D31021294800F066FE03E0142000F023
:1019F000B9FCE8E700BF70BD10B5274800780128A2
:101A000021D100202449087024484078012802D1BF
:101A1000FFF736FF17E021484078022813D01F480F
:101A20004078032802D1FFF746FD0CE01B484078C0
:101A3000042802D1FFF77CFB05E018484078052810
:101A400001D1FFF743FA10BD001001400000002053
:101A50000000484300005E430000FA4200006B4370
:101A60001F856B3E0000024300008243EC51383E6C
:101A700000000743000096435839B43D00000C4372
:101A800000007C4200F0614000800F43000C0140E8
:101A90000000AA420000BA42B8020020570300200A
:101AA000D002002010B54FF4A06000F087FC10BDFC
:101AB000014600BF704700BFFA4A128802F0400298
:101AC000002AF9D0C2B2F74B1B1D1A80704710B51F
:101AD00086B00446012144F2040000F0F9FF4FF4FF
:101AE0000070ADF8140018208DF8170003208DF851
:101AF000160005A9EC4800F02FFD4FF48060ADF80A
:101B0000140004208DF8170005A9E74800F024FD13
:101B100001940020ADF80800ADF80A00ADF80C0003
:101B2000ADF810000C20ADF80E0025208DF8000057
:101B300000208DF8010003208DF8020001208DF8AF
:101B40000300684600F03FFC01A9D64801F067F8A1
:101B50000121D44801F0EFF806B010BD10B50446DD
:101B60002146D04801F061F900BF4021CD4801F085
:101B70004FF90128F9D110BD70B504460D46002675
:101B800005E014F8010BFFF7E9FF701C86B2AE42C6
:101B9000F7DB70BD70B50446204602F020FD86B22A
:101BA000002505E014F8010BFFF7D8FF681C85B28B
:101BB000B542F7DB70BD10B540F22551B94801F0D0
:101BC000B5F9F0B1B74801F03EF9B849B84A126822
:101BD000885408460078232803D00020B4490860C0
:101BE00010BDB34801680068401CB14A1060AF489E
:101BF000405C2A2805D10020114608600120AD492B
:101C0000087000BFECE710B586B0044601218804D7
:101C100000F06BFF0121082000F05AFF4FF48060B4
:101C2000ADF8140018208DF8170003208DF8160069
:101C300005A9A14800F090FC4FF40060ADF8140035
:101C400004208DF8170005A99B4800F085FC01943D
:101C50000020ADF80800ADF80A00ADF80C00ADF8B2
:101C600010000C20ADF80E0001A9944800F0D7FF39
:101C700027208DF8000000208DF8010003208DF84A
:101C8000020001208DF80300684600F09CFB012251
:101C900040F22551894801F05AF80121874801F0A6
:101CA0004AF806B010BD10B504462146834801F03D
:101CB000BCF800BF4021814801F0AAF80128F9D101
:101CC00010BD70B504460D46002605E014F8010B62
:101CD000FFF7E9FF701C86B2AE42F7DB70BD70B54E
:101CE0000446204602F07BFC86B2002505E014F88D
:101CF000010BFFF7D8FF681C85B2B542F7DB70BD5A
:101D000010B540F225516D4801F010F908B36B4849
:101D100001F099F86A496B4AB2F9002088540846E4
:101D20000078232803D000206649088010BD65484C
:101D3000B0F900100088401C00B2624A1080604870
:101D4000405C2A2805D100201146088001205E4908
:101D5000087000BFEAE710B586B0044601210420F0
:101D600000F0B6FE0121480400F0BFFE0420ADF8EB
:101D7000140018208DF8170003208DF8160005A90F
:101D8000494800F0E9FB0820ADF8140004208DF864
:101D9000170005A9444800F0DFFB26208DF800005D
:101DA00000208DF8010003208DF8020001208DF83D
:101DB0000300684600F007FB01940020ADF808001E
:101DC000ADF80A00ADF80C00ADF810000C20ADF82D
:101DD0000E0001A93D4800F022FF012240F22551EA
:101DE0003A4800F0B4FF0121384800F0A4FF06B0E3
:101DF00010BD10B504462146344801F016F800BF66
:101E00004021324801F004F80128F9D110BD70B525
:101E100004460D46002605E014F8010BFFF7E9FF24
:101E2000701C86B2AE42F7DB70BD70B5044620462A
:101E300002F0D5FB86B2002505E014F8010BFFF790
:101E4000D8FF681C85B2B542F7DB70BD10B540F213
:101E500025511E4801F06AF808B31C4800F0F3FF52
:101E60001B491C4AB2F900208854084600782328F0
:101E700003D000201749088010BD1648B0F90010A3
:101E80000088401C00B2134A10801148405C2A2888
:101E900005D100201146088001200F49087000BFBD
:101EA000EAE7000000380140000801401B03002061
:101EB000AC020020B0020020000C014000480040AD
:101EC00039030020B2020020B40200200044004088
:101ED00057030020B6020020B802002000B587B0EA
:101EE000012140F2052000F0F3FD4FF4004000F026
:101EF00053FD904801F06CFF0220ADF8180000205F
:101F00008DF81B0003208DF81A0006A98A4800F0FE
:101F100023FB002001908DF808008DF809004FF494
:101F2000602003900020049001208DF8140001A986
:101F3000804801F074FF0723012210217D4802F040
:101F400006F8012002F028F901217A4801F093FFF8
:101F5000784801F0B2FF00BF764801F0B3FF0028D7
:101F6000FAD1744801F0B8FF00BF724801F0B9FF20
:101F70000028FAD101216F4801F0BDFF07B000BD74
:101F80002DE9FF5F01216B4801F0B5FF00BF022181
:101F9000684802F021F90028F9D0664802F03EF8BE
:101FA000054603F071FA0446514603F005F98246EE
:101FB0006249504603F0B0FA4FF08B41019003F0B4
:101FC00069F9834603F0CCF806465D4A5D4B02F0A2
:101FD000D1FF4FF000425C4BCDE9020102F002FD5F
:101FE00004460022594B02F049FC804602F014FCE2
:101FF0008246504604B0BDE8F09F00B587B001218D
:102000004FF4017000F064FD4FF4004000F0C4FC98
:102010000120ADF8040000208DF8070001A9464812
:1020200000F09AFA002002908DF80C0001208DF843
:102030000D004FF460200490002005908DF81800EA
:1020400002A93C4801F0EBFE05230122002139489A
:1020500001F07DFF0121374801F00DFF354801F007
:102060002CFF00BF334801F02DFF0028FAD1314882
:1020700001F032FF00BF2F4801F033FF0028FAD1F2
:1020800001212C4801F037FF07B000BD00B587B033
:10209000012140F2044000F01BFD4FF4004000F02D
:1020A0007BFC2020ADF8040000208DF8070001A97A
:1020B000214800F051FA002002908DF80C00012018
:1020C0008DF80D004FF4602004900020059005204D
:1020D0008DF8180002A91E4801F0A1FE0523012277
:1020E00019461B4801F033FF0121194801F0C3FED6
:1020F000174801F0E2FE00BF154801F0E3FE00289A
:10210000FAD1134801F0E8FE00BF114801F0E9FEE2
:102110000028FAD101210E4801F0EDFE07B000BD04
:1021200010B5044801F07AFF10BD10B5084801F061
:1021300075FF10BD002401400008014033335340B7
:10214000E17A14AE47E1F63FE09C713F0000394070
:102150000028014070B5FEF733F91A4800683222B2
:10216000B0FBF2F1B1F1807F01D301201DE021F03D
:102170007F40401E4FF0E022506150170F22002890
:1021800007DA13071D0E104B00F00F04241F1D5516
:1021900003E013071C0E0D4B1C5400BF00204FF032
:1021A000E022906107201061002008B100BFFEE727
:1021B0004FF0E020006940F001004FF0E02108619D
:1021C00070BD70470800002018ED00E000E400E05A
:1021D00008B54FF4A06000F0F1F803208DF800007E
:1021E00000208DF8010002208DF8020001208DF8FA
:1021F0000300684600F0E7F808BD10B501210807A4
:1022000000F073FC0121C80600F06FFC012002F011
:1022100012F802F06BF8012000F0C7FB00BF41206C
:1022200000F02BFB0028FAD04FF4807000F0D9FBAF
:10223000012000F0DCFB02F020F902F015F9012189
:10224000084602F0B5F802F00FF947F6FF7002F009
:10225000E5F802F009F910BD10B501214FF0C050AA
:1022600000F043FC012001F0E6FF042002F073F8C7
:102270004AF2A55188420FD0FFF7BFFF02F0F4F8F1
:102280004DF2200002F0BDF802F0EEF84AF2A5513E
:10229000042002F054F809E002F0EFF802F0E4F84C
:1022A0000121084602F084F802F0DEF8FFF790FF03
:1022B00000F04CFC10BD10B5012002F003F928B16C
:1022C000012002F00FF901200149087010BD000043
:1022D000B902002041E000BF00BF00BF00BF00BF47
:1022E00000BF00BF00BF00BF00BF00BF00BF00BFF6
:1022F00000BF00BF00BF00BF00BF00BF00BF00BFE6
:1023000000BF00BF00BF00BF00BF00BF00BF00BFD5
:1023100000BF00BF00BF00BF00BF00BF00BF00BFC5
:1023200000BF00BF00BF00BF00BF00BF00BF00BFB5
:1023300000BF00BF00BF00BF00BF00BF00BF00BFA5
:1023400000BF00BF00BF00BF00BF00BF00BF00BF95
:1023500000BF00BF00BF00BF00BF011EA0F1010011
:10236000B9D1704700B5034603E04FF47570FFF72D
:10237000B1FF181EA3F10103F7D100BD0948804742
:1023800009480047FEE7FEE7FEE7FEE7FEE7FEE757
:10239000FEE7FEE7FEE7FEE704480549054A064B6F
:1023A000704700007303000831010008D8030020C3
:1023B000D8090020D8050020D80500203149014364
:1023C000314A1160704770B5002100230F22C47894
:1023D00004B32D4C246804F4E064C4F5E064210ADD
:1023E000C1F10403CA40447804FA03F1847814402C
:1023F00021430901254C0678A155047804F01F05F6
:102400000124AC4005786D11AD0005F1E025C5F85B
:10241000004109E0047804F01F050124AC401C4D84
:102420000678761145F8264070BD1A4A0A400243E4
:10243000154B1B1F1A60704739B1134A121D1268E1
:102440000243114B1B1D1A6006E00F4A121D126851
:1024500082430D4B1B1D1A607047042808D14FF0B2
:10246000E021096941F004014FF0E022116107E029
:102470004FF0E021096921F004014FF0E0221161E1
:10248000704700000000FA050CED00E000E400E0F9
:1024900080E100E080FFFF1F10B50446CC48844275
:1024A00008D10121042000F02DFB0021042000F0C0
:1024B00029FB46E0C748844208D10121082000F0EA
:1024C00021FB0021082000F01DFB3AE0C2488442B5
:1024D00008D10121102000F015FB0021102000F090
:1024E00011FB2EE0BD48844208D10121202000F0DC
:1024F00009FB0021202000F005FB22E0B8488442BF
:1025000008D10121402000F0FDFA0021402000F018
:10251000F9FA16E0B348844208D10121802000F086
:10252000F1FA0021802000F0EDFA0AE0AE48844282
:1025300007D10121801500F0E5FA0021A01500F077
:10254000E1FA10BD10B50121084600F0DBFA0021C8
:10255000012000F0D7FA10BD2DE9F0410246002518
:102560000026002000230024002791F803C00CF06F
:102570000F0591F803C00CF0100CBCF1000F03D054
:1025800091F802C04CEA050591F800C0BCF1000FBB
:1025900031D0146800202BE04FF0010C0CFA00F34E
:1025A000B1F800C00CEA03069E4220D183004FF030
:1025B0000F0C0CFA03F7BC4305FA03FC4CEA0404C5
:1025C00091F803C0BCF1280F06D14FF0010C0CFAB2
:1025D00000FCC2F814C00AE091F803C0BCF1480F37
:1025E00005D14FF0010C0CFA00FCC2F810C0401CE1
:1025F0000828D1D31460B1F800C0BCF1FF0F34DD5E
:10260000546800202EE000F1080C4FF0010808FA91
:102610000CF3B1F800C00CEA03069E4221D18300FE
:102620004FF00F0C0CFA03F7BC4305FA03FC4CEA1D
:10263000040491F803C0BCF1280F05D100F1080C87
:1026400008FA0CF8C2F8148091F803C0BCF1480FE6
:1026500007D100F1080C4FF0010808FA0CF8C2F895
:102660001080401C0828CED35460BDE8F0814FF69E
:10267000FF710180022181700421C1707047024600
:10268000002093680B400BB1012000E00020704750
:102690000146886880B2704702460020D3680B402C
:1026A0000BB1012000E0002070470146C86880B2ED
:1026B000704701617047416170470AB1016100E0F4
:1026C00041617047C16070474FF480320A438261B4
:1026D0008161826182698269704702460020434BB2
:1026E00018684FF68073184040EA021008433F4BC9
:1026F000186070473E49C8617047F0B50A4600232C
:1027000000240021002500F00046B6F1004F02D160
:10271000364EF16901E0354E7168C0F3034583B26E
:1027200000F44016B6F5401F08D121F070612F4E1D
:10273000766826F070662D4F7E6012E000F48016F9
:10274000B6F5801F06D1032606FA05F4A14341F031
:10275000706106E0460D360103FA06F6B14341F01A
:10276000706122B1460D360103FA06F6314300F0DE
:102770000046B6F1004F02D11C4EF16101E01B4E44
:102780007160F0BD30B500228B071C0F0F2303FAD8
:1027900004F2164B08338C1053F824309343134C37
:1027A00008348D1044F8253023468C1053F824301B
:1027B0008C07240F00FA04F423430C4C08348D10CA
:1027C00044F8253030BD0A49DC310860704700000C
:1027D00000080140000C01400010014000140140BD
:1027E00000180140001C0140002001400000014091
:1027F00000002042DF48006840F00100DD49086029
:1028000008464068DC490840DA49486008460068E4
:10281000DA490840D74908600846006820F480205B
:1028200008600846406820F4FE0048604FF41F002E
:1028300088607047CF49096821F48031CD4A116022
:102840001146096821F480211160B0F5803F03D062
:10285000B0F5802F0ED106E0C649096841F48031F9
:10286000C44A116007E0C349096841F4A021C14A84
:10287000116000E000BF00BF704710B501460022A4
:10288000002300204A11012A02D1BA4C236806E035
:10289000022A02D1B74C236A01E0B64C636A01F008
:1028A0001F02012494401C400CB1012000E00020D4
:1028B00010BD38B5002000900024002500BF312055
:1028C000FFF7DBFF05460098401C00900098B0F52C
:1028D000A06F01D0002DF2D03120FFF7CEFF08B15C
:1028E000012400E00024204638BD01460020A14A12
:1028F000106820F0F80040EAC10010607047A0495D
:1029000008607047024600209A4B586820F47C10FB
:1029100042EA01031843974B58607047984908668C
:10292000704701460020934A506820F00300084396
:10293000506070478F48406800F00C0070470146B7
:1029400000208C4A506820F0F00008435060704727
:1029500001460020874A506820F4E0600843506038
:10296000704701460020834A506820F4605040EAD6
:10297000C1005060704729B17E4A527A02437D4BB4
:102980005A7204E07B4A527A82437A4B5A727047F9
:102990007B49D8310860704701460020754A50686D
:1029A00020F440400843506070470021714A2032B3
:1029B0001170704A82F82010012802D004280AD130
:1029C00004E001216B4A2032117005E00521694ABB
:1029D0002032117000E000BF00BF704769490860F5
:1029E00070476449096A0143624A11627047654948
:1029F00044390860704730B50021002200240023CC
:102A00005C4D6D6805F00C0121B1042905D0082941
:102A100023D105E05C4D056022E05B4D05601FE0C1
:102A2000544D6D6805F47012524D6D6805F4803494
:102A3000022505EB92421CB9544D554305600BE04D
:102A40004C4D6D6805F400351DB1504D5543056082
:102A500002E04D4D5543056002E04B4D056000BF5F
:102A600000BF444D6D6805F0F0010909484D6B5CED
:102A70000568DD4045603F4D6D6805F4E061090A79
:102A8000434D6B5C4568DD4085603A4D6D6805F4EB
:102A90006051C90A3E4D6B5C4568DD40C560354DEF
:102AA0006D6805F44041890B3A4D6B5CC568B5FB18
:102AB000F3F5056130BD29B12E4A526902432D4B11
:102AC0005A6104E02B4A526982432A4B5A6170478B
:102AD00029B1284A92690243264B9A6104E0254AAB
:102AE00092698243234B9A61704729B1214AD26986
:102AF0000243204BDA6104E01E4AD26982431D4B37
:102B0000DA61704729B11B4AD2680243194BDA6077
:102B100004E0184AD2688243164BDA60704729B144
:102B2000144A12690243134B1A6104E0114A1269F4
:102B30008243104B1A617047124940390860704750
:102B40000F49C86470470B49C87170470948406A0B
:102B500040F0807007494862704701460020054AEE
:102B600092680A400AB1012000E000207047014944
:102B700088727047001002400000FFF8FFFFF6FE69
:102B8000000042428004424200127A0000093D00E7
:102B9000BA020020CA02002010B50446F748844259
:102BA00009D101218803FFF7ADFF00214FF48040D8
:102BB000FFF7A8FF32E0F248844209D1012148041E
:102BC000FFF7ADFF00214FF40030FFF7A8FF25E02D
:102BD000EC48844209D101218804FFF7A0FF0021BD
:102BE0004FF48020FFF79BFF18E0E748844209D1AB
:102BF0000121C804FFF793FF00214FF40020FFF7E5
:102C00008EFF0BE0E148844208D101210805FFF75F
:102C100086FF00214FF48010FFF781FF10BD2DE9E2
:102C2000F04786B005460E460024A24600BFA146E6
:102C30000027B08900B100BF2F462C8A4CF6FF70E8
:102C40000440F08804432C82AC894EF6F310044013
:102C5000B08831890843718908430443AC81AC8A48
:102C60004FF6FF400440B0890443AC8201A8FFF74F
:102C7000C2FEC248874202D1DDF810A001E0DDF8B3
:102C80000CA0A88900F4004040B10AEBCA0000EB98
:102C90000A1031684900B0FBF1F807E00AEBCA00FE
:102CA00000EB0A1031688900B0FBF1F86420B8FB32
:102CB000F0F004012009642101FB1089A88900F4C7
:102CC000004040B1322000EBC900B0FBF1F000F051
:102CD0000700044308E0322000EB09106421B0FB38
:102CE000F1F000F00F0004432C8106B0BDE8F0873E
:102CF0004FF41651016000218180C18001810C21B7
:102D0000418100218181704710B502460020108A60
:102D10004FF2FF0318400B884C8823438C882343D1
:102D2000CC8823431843108210BD002101804180CC
:102D30008180C180704721B1828942F40052828132
:102D400004E082894DF6FF731A4082817047F0B526
:102D50000346002400260025002040F66A17B942E9
:102D600000D100BF1846C1F3421401F01F0601272D
:102D700007FA06F5012C01D10C3004E0022C01D138
:102D8000103000E014301AB107682F43076002E0EA
:102D90000768AF430760F0BD1AB1838A0B43838293
:102DA00002E0838A8B4383827047028A4FF6F07376
:102DB0001A400282028A0A430282704782894FF2D5
:102DC000FF731A40828182890A438281704721B150
:102DD000828942F00202828104E082894FF6FD730B
:102DE0001A4082817047028A4FF6DF731A400282CE
:102DF000028A0A430282704721B1028A42F4804269
:102E0000028204E0028A4BF6FF731A400282704786
:102E100002460020B1F5007F00D100BF13880B40AF
:102E20000BB1012000E00020704730B504460D468C
:102E3000C5F30800A08000BF80212046FFF7E8FF0F
:102E40000028F9D030BD01468888C0F308007047DB
:102E5000818941F0010181817047028BD2B20283E6
:102E6000028B42EA012202837047028B02F47F4206
:102E70000283028B0A430283704721B1828A42F0A7
:102E80002002828204E0828A4FF6DF731A40828237
:102E9000704721B1828A42F01002828204E0828A65
:102EA0004FF6EF731A408282704721B1828A42F056
:102EB0000802828204E0828A4FF6F7731A40828207
:102EC000704721B1828942F40042828103E0828905
:102ED000C2F30E028281704721B1828A42F40062FD
:102EE000828204E0828A4FF2FF731A408282704726
:102EF000828A4FF6FB731A408282828A0A43828258
:102F0000704721B1828A42F00202828204E0828A02
:102F10004FF6FD731A408282704701F40072B2F5D9
:102F2000007F00D100BFCA430280704770B50246DF
:102F3000002400230025002040F66A16B14200D18B
:102F400000BFC1F3421501F01F03012606FA03F387
:102F5000012D02D19689334006E0022D02D1168A56
:102F6000334001E0968A33400C12012606FA04F43D
:102F70001688344063B15CB101200AE0003801409A
:102F80000044004000480040004C00400050004019
:102F9000002070BD10B50022002340F66A14A14243
:102FA00000D100BF0A1201249440A3B2DC43048084
:102FB00010BD000010B50446FE48844208D101212E
:102FC000C014FFF79FFD0021E014FFF79BFDC4E054
:102FD000B4F1804F08D101210846FFF7A0FD002180
:102FE0000120FFF79CFDB8E0F348844208D101219D
:102FF0000220FFF794FD00210220FFF790FDACE0D6
:10300000EE48844208D101210420FFF788FD002109
:103010000420FFF784FDA0E0E948844208D10121A3
:103020000820FFF77CFD00210820FFF778FD94E0E1
:10303000E448844208D101211020FFF770FD0021EF
:103040001020FFF76CFD88E0DF48844208D10121A1
:103050002020FFF764FD00212020FFF760FD7CE0C9
:10306000DA48844208D101214014FFF74BFD0021CA
:103070006014FFF747FD70E0D548844209D1012173
:10308000C804FFF73FFD00214FF40020FFF73AFD91
:1030900063E0D048844209D101210805FFF732FDE1
:1030A00000214FF48010FFF72DFD56E0CA488442FE
:1030B00009D101214805FFF725FD00214FF400103B
:1030C000FFF720FD49E0C548844208D10121402096
:1030D000FFF725FD00214020FFF721FD3DE0C0481E
:1030E000844208D101218020FFF719FD00218020B2
:1030F000FFF715FD31E0BB48844208D1012180155E
:10310000FFF70DFD0021A015FFF709FD25E0B648EA
:10311000844209D101210804FFF7F4FC00214FF497
:103120008030FFF7EFFC18E0B048844209D101215C
:103130004804FFF7E7FC00214FF40030FFF7E2FC02
:103140000BE0AB48844208D101218804FFF7DAFC88
:1031500000214FF48020FFF7D5FC10BD002202882B
:10316000944B98420ED0994B98420BD0B0F1804FBF
:1031700008D0914B984205D0904B984202D0904B8A
:10318000984204D14FF68F731A404B881A438D4BE7
:10319000984207D08C4B984204D04FF6FF431A4018
:1031A000CB881A4302808B8883850B880385814BEB
:1031B00098420BD0854B984208D08B4B984205D053
:1031C0008A4B984202D08A4B984201D10B7A0386EF
:1031D00001238382704770B5002400220023058CF0
:1031E0004FF6FE7635400584028C8388048B4FF6BB
:1031F0008F752C40B51E2C400D882C43751E2A401F
:103200000D892A434D882A436A4DA8420BD06F4D41
:10321000A84208D0744DA84205D0744DA84202D0EF
:10322000734DA84213D14FF6F7752A404D892A43B2
:103230004FF6FB752A408D882A434FF6FF652B40D9
:103240004FF6FF552B408D892B43CD892B4383802F
:103250000483CD888586028470BD70B50024002269
:103260000023058C4FF6EF7635400584028C838869
:10327000048B48F6FF752C404FF6FF452C400D8817
:103280004FF6FF7606EA05252C434FF6DF752A40F8
:103290000D8906EA05152A434D8806EA05152A43D5
:1032A000444DA84202D0494DA8421DD14FF67F752A
:1032B0002A404D894FF6FF7606EA05152A434FF658
:1032C000BF752A408D8806EA05152A434FF6FF355B
:1032D0002B404FF2FF752B408D8906EA85052B4365
:1032E000CD8906EA85052B4383800483CD88058735
:1032F000028470BD70B5002400220023058C4FF6B7
:10330000FF6635400584028C8388848B4FF68F7569
:103310002C404FF6FC752C400D882C434FF6FF5582
:103320002A400D894FF6FF7606EA05252A434D8887
:1033300006EA05252A431F4DA84202D0234DA84284
:103340001DD14FF2FF752A404D894FF6FF7606EAF0
:1033500005252A434FF6FF352A408D8806EA0525C4
:103360002A434EF6FF752B404DF6FF752B408D8995
:1033700006EA05152B43CD8906EA05152B43838004
:103380008483CD888587028470BD70B500220023B8
:103390000024058C4EF6FF7635400584038C848826
:1033A000828B48F6FF752A404FF6FF452A400D886C
:1033B00020E00000002C0140000400400008004014
:1033C000000C004000100040001400400034014098
:1033D000004C0140005001400054014000180040E2
:1033E000001C00400020004000400140004401401B
:1033F000004801404FF6FF7606EA05252A434DF6C0
:10340000FF752B400D8906EA05352B434D8806EAEA
:1034100005352B43FA4DA84202D0FA4DA84208D1F7
:103420004BF6FF752C408D894FF6FF7606EA851521
:103430002C4384808283CD88A0F84050038470BDE3
:10344000828B4FF2FF331A408283828B4FF6FF73D9
:1034500003EA01231A4382837047F0B50C461546F0
:10346000002200210026078C4EF6FF7C07EA0C079D
:103470000784828B018C4FF6FF7707EA043640F60B
:10348000FF473A404FF6FF7707EA05273A434FF6E2
:10349000FF7707EA03373A43D94FB8420ED0D94FE6
:1034A000B8420BD0B0F1804F08D0D74FB84205D00A
:1034B000D64FB84202D0D64FB84206D14DF6FF776C
:1034C000394046F48057394305E047F6FF57394005
:1034D00044F48057394382830184F0BD828B4FF6D8
:1034E000F3731A408283828B0A4382837047F0B55C
:1034F0000C461546002200210026078C4FF6FF6C73
:1035000007EA0C070784828B018C4FF6FF7707EAE6
:1035100004264FF60C773A404FF6FF7707EA031779
:103520002F433A43B64FB8420ED0B64FB8420BD0F5
:10353000B0F1804F08D0B44FB84205D0B34FB84275
:1035400002D0B34FB84206D14FF6FF57394046F488
:103550008077394305E04FF2FF57394044F48077D4
:10356000394382830184F0BD028B4FF2FF331A404E
:103570000283028B4FF6FF7303EA01231A4302838F
:103580007047F0B50C461546002200210026078C36
:103590004FF6EF7C07EA0C070784028B018C4FF68D
:1035A000FF7707EA041640F6FF473A404FF6FF77E9
:1035B00007EA03373A434FF6FF7707EA05273A430E
:1035C0008F4FB8420ED08F4FB8420BD0B0F1804F22
:1035D00008D08D4FB84205D08C4FB84202D08C4FE6
:1035E000B84206D14FF6DF77394046F0100739432D
:1035F00005E04FF65F77394044F010073943028306
:103600000184F0BD028B4FF6F3731A400283028BE4
:103610000A4302837047F0B50C461546002200218C
:10362000068C4FF6FE773E400684028B018C4FF6E7
:103630000C7632407E1C06EA03162E433243704E4F
:10364000B0420ED06F4EB0420BD0B0F1804F08D0D8
:103650006D4EB04205D06D4EB04202D06C4EB042BD
:1036600006D14FF6FD76314044F00106314305E0C6
:103670004FF6F576314044F0010631430283018470
:10368000F0BD70B505460C465D4885420ED05D48DC
:1036900085420BD0B5F1804F08D05B48854205D0FC
:1036A0005A48854202D05A48854200D100E000BF06
:1036B000208850B92389A28861882846FFF7ABFF8C
:1036C000E1882846FFF79EFF25E0208804280AD1DC
:1036D0002389A28861882846FFF753FFE18828469E
:1036E000FFF742FF17E0208808280AD12389A28823
:1036F00061882846FFF7FBFEE1882846FFF7EEFECB
:1037000009E02389A28861882846FFF7A6FEE188A0
:103710002846FFF795FE70BD2DE9F04105460C46A1
:1037200000260127608808B9022600E00026A0884C
:10373000012801D1022700E001272088A0B92389B0
:10374000A28861882846FFF766FFE1882846FFF7D0
:1037500059FF23893A4631462846FFF712FFE18890
:103760002846FFF701FF13E02389A28861882846D5
:10377000FFF707FFE1882846FFF7F6FE23893A4660
:1037800031462846FFF747FFE1882846FFF73AFF12
:10379000BDE8F0810A884B881A438B881A43CB888E
:1037A0001A430B891A434B891A438B891A43A0F891
:1037B000442070474FF6FF71818000210180C18055
:1037C0004180017270470021018041808180C18069
:1037D000018141818181C181704700210180418047
:1037E000012181800021C180018170470021018079
:1037F00041808180C18001814181818170470000C9
:10380000002C01400034014000040040000800404A
:10381000000C004021B1028842F00102028004E065
:1038200002884FF6FE731A400280704731B1B0F83B
:10383000442042F40042A0F8442005E0B0F84420BF
:10384000C2F30E02A0F8442070471AB183890B43DB
:10385000838102E083898B43838170478182704733
:1038600041EA0203A0F8483070471AB183890B433C
:10387000838102E083898B438381704701894FF6FE
:10388000F8721140018170470A46002101894FF604
:103890008F73194011430181704730B504460D46BE
:1038A00029462046FFF7F0FF208940F007002081DD
:1038B00030BD2DE9F04104460D4616461F46602DE9
:1038C00006D13B46012231462046FFF75AFE05E06D
:1038D0003B46012231462046FFF79DFE2946204601
:1038E000FFF7D2FF208940F007002081BDE8F0817A
:1038F00030B50C4600210189C9B24FF6FF7505EAC3
:103900000325154325432943018130BD2DE9F041AD
:1039100005460E4617469846002443463A46314629
:103920002846FFF7E5FF2C894FF6F870044044F075
:1039300007044FF68F70044044F070042C81BDE8FA
:10394000F081F0B504460D4616461F463B4632460A
:1039500029462046FFF7CCFF208940F48040208193
:10396000F0BD0185828270470A46002101884FF62A
:103970008F731940114301807047F0B50C4615460E
:103980001E460021002200230189028B038C4FF682
:10399000F877394021434FF6FC473A4040F201178F
:1039A0003A434FF6DD773B404FF6FF7707EA0617BD
:1039B0002F433B43018102830384F0BD0A4600216B
:1039C000018B4FF68F7319401143018370470A46EC
:1039D0000021018B48F6FF7319404FF6FF7303EA8D
:1039E00002231943018370470A460021818B4FF659
:1039F0008F7319401143818370470A460021818BE0
:103A000048F6FF7319404FF6FF7303EA0223194388
:103A10008183704721B1028842F08002028004E075
:103A200002884FF67F731A400280704721B1828866
:103A300042F00402828004E082884FF6FB731A4051
:103A40008280704721B1828842F00802828004E0BF
:103A500082884FF6F7731A408280704721B18288BE
:103A600042F00102828004E082884FF6FE731A4021
:103A7000828070470A460021018B4FF6F773194088
:103A80001143018370470A460021018B4FF2FF73F7
:103A900019404FF6FF7303EA02231943018370476D
:103AA0000A460021818B4FF6F77319401143818339
:103AB00070470A460021818B4FF2FF7319404FF681
:103AC000FF7303EA02231943818370470A460021EA
:103AD000018B4FF6FB7319401143018370470A466F
:103AE0000021018B4FF6FF3319404FF6FF7303EAB5
:103AF00002231943018370470A460021818B4FF648
:103B0000FB7319401143818370470A460021818B62
:103B10004FF6FF3319404FF6FF7303EA02231943B0
:103B2000818370470A460021018B4FF67F7319404D
:103B30001143018370470A460021018BC1F30E0136
:103B40004FF6FF7303EA02231943018370470A46C5
:103B50000021818B4FF67F73194011438183704799
:103B60000A460021818BC1F30E014FF6FF7303EA71
:103B700002231943818370470A460021018C4FF6C6
:103B8000FD7319401143018470470A460021018CDE
:103B90004FF6F77319401143018470470A4600211C
:103BA000018C4FF6DF7319404FF6FF7303EA0213DF
:103BB0001943018470470A460021018C4FF67F7338
:103BC00019404FF6FF7303EA02131943018470474B
:103BD0000A460021018C4FF6FF5319404FF6FF7340
:103BE00003EA02231943018470470A460021018C2D
:103BF0004FF2FF7319404FF6FF7303EA0223194394
:103C0000018470470A460021018C4DF6FF7319406C
:103C10004FF6FF7303EA023319430184704730B54E
:103C2000002301248C40A3B2048C9C430484048CA4
:103C300002FA01F5ADB22C43048430BD30B5002347
:103C400004248C40A3B2048C9C430484048C02FAA8
:103C500001F5ADB22C43048430BD70B5034600209D
:103C600000241846183001258D40ACB21D8CA543A8
:103C70001D8409B1082909D100EB6100056825F010
:103C8000700505600568154305600EE00D1FC5F35E
:103C90004E052844056825F4E045056005684FF6A3
:103CA000FF7606EA02263543056070BD21B1028821
:103CB00042F00202028004E002884FF6FD731A40CF
:103CC0000280704721B1028842F00402028004E0C1
:103CD00002884FF6FB731A400280704721B1828838
:103CE00042F08002828004E082884FF67F731A409F
:103CF0008280704702884FF6F7731A40028002886C
:103D00000A430280704782884FF68F731A40828080
:103D100082880A438280704702894FF6F8731A40FE
:103D2000028102890A430281704702894FF67F733C
:103D30001A40028102890A430281704781847047D8
:103D400081857047818670470187704781877047FA
:103D5000A0F84010704702884FF6FF431A400280D7
:103D600002880A43028070470146888E70470146E8
:103D7000088F70470146888F70470146B1F84000B0
:103D800070470146888C70470146088D704702468F
:103D90000020138A0B400BB1012000E00020704787
:103DA000CA430282704730B5024600200023002437
:103DB000158A05EA0103958905EA010413B10CB1DE
:103DC000012000E0002030BDCA430282704700009D
:103DD00010B50446FA48844208D101214015FEF787
:103DE00091FE00216015FEF78DFE17E0F548844234
:103DF00008D101210015FEF785FE00212015FEF7F0
:103E000081FE0BE0F048844208D10121C803FEF78F
:103E100079FE00214FF40040FEF774FE10BD30B56E
:103E20000246002000235068E84C20400D790C68C1
:103E300044EA0524204350609068E54C2040D1E9D5
:103E400002542C434D7944EA450420439060D06AE3
:103E500020F470000C7C641EE4B2234340EA03505B
:103E6000D06230BD00210160017141718160C1608B
:103E700001210174704721B1826842F00102826021
:103E800003E0826822F001028260704721B18268FB
:103E900042F48072826003E0826822F48072826061
:103EA000704710B50023CBB21AB144681C4344607C
:103EB00002E044689C43446010BD816841F0080101
:103EC00081607047014600208A6802F008020AB14A
:103ED000012000E000207047816841F0040181600A
:103EE0007047014600208A6802F004020AB10120EE
:103EF00000E00020704721B1826842F4A002826095
:103F000003E0826822F4A00282607047014600202C
:103F10008A6802F480020AB1012000E000207047A4
:103F200010B50A4600210023416821F46041531E68
:103F300041EA4331416010BD21B1426842F4006260
:103F4000426003E0426822F4006242607047F0B5CC
:103F500004460D4600200021092D11DDE068A5F181
:103F60000A0606EB4607072606FA07F18843A5F17D
:103F70000A0606EB460603FA06F10843E0600CE089
:103F8000206905EB4507072606FA07F1884305EB8C
:103F9000450603FA06F108432061072A0FDA606B31
:103FA000561E06EB86071F2606FA07F18843561EA3
:103FB00006EB860605FA06F10843606322E00D2A47
:103FC0000FDA206BD61F06EB86071F2606FA07F1CD
:103FD0008843D61F06EB860605FA06F108432063E0
:103FE00010E0E06AA2F10D0606EB86071F2606FA2E
:103FF00007F18843A2F10D0606EB860605FA06F1E5
:104000000843E062F0BD21B1826842F48012826010
:1040100003E0826822F48012826070470146C86C17
:1040200080B2704766484C300068704721B14268E2
:1040300042F48062426003E0426822F4806242609F
:10404000704721B1426842F48052426003E0426806
:1040500022F48052426070470A460021816821F4B0
:10406000E04111438160704721B1826842F400420F
:10407000826003E0826822F400428260704721B1CE
:10408000826842F40212826003E0826822F4021223
:1040900082607047014600208A6802F400120AB16B
:1040A000012000E000207047F0B5044615460020CE
:1040B00000220026092911DDE068A1F10A0707EBBB
:1040C000470C072707FA0CF29043A1F10A0707EB08
:1040D000470703FA07F21043E0600CE0206901EBA8
:1040E000410C072707FA0CF2904301EB410703FA52
:1040F00007F210432061A06BC0F30156EF1C06F1DC
:10410000010CA7EB0C0707EB870C1F2707FA0CF233
:104110009043EF1C06F1010CA7EB0C0707EB870798
:1041200001FA07F21043A063F0BD10B50A46002162
:104130000023816B21F44011531E41EA0351816336
:1041400010BD08B5002300930090009B0B44009322
:10415000009B1A6008BD08B502460020009000923E
:1041600001F12800009B184400900098006880B27C
:1041700008BD0A4600214168164B194011434160B1
:1041800070474162826270470A460021416821F00F
:104190001F0111434160704740B109490831096866
:1041A00041F40001064A0832116007E00449083171
:1041B000096821F40001024A0832116070470000CA
:1041C0000024014000280140003C0140FFFEF0FFB8
:1041D000FDF7F1FFFFFD3FFF0246002013680B4093
:1041E0000BB1012000E000207047CA430260704715
:1041F00070B502460020002300240B125568CEB291
:1042000005EA060415681D4015B10CB1012000E057
:10421000002070BD00220A12D343036070470000E3
:1042200010B501210807FEF77AFC00214FF08050FD
:10423000FEF775FC10BD2A490862704728490861DD
:10424000704701460020274A106820F0E00008432C
:10425000106070472249A0310860704710B50246CF
:104260000020204B186820F00300104318601E4BFC
:104270001B6843F004031C4C2360012901D130BFAB
:1042800000E020BF184B1B6823F00403164C23608A
:1042900010BD1448006840F0040012490860084648
:1042A000006840F0020008600F48006840F0040019
:1042B0000D49086000BF00BF30BF704701460020B5
:1042C000084A52680A400AB1012000E00020704705
:1042D0000449096841EA8001024A11607047000000
:1042E00000000E420070004010ED00E010B501200B
:1042F000FEF722FC0020FEF71FFC10BD2A490860D3
:1043000070472949091F08607047274984310860B0
:10431000704701460020254A10884FF67F42104022
:104320000843224A10807047014600201F4A108827
:104330004FF68072104008431C4A1080704708B541
:1043400000220092194A2C3A0092009A02440092EC
:10435000009A116008BD08B501460020009013487E
:104360002C3800900098084400900098008808BD00
:104370000D489C300068C0B270470C480830008877
:1043800040F0010009490831088070470648A03014
:104390000068C0B2704705480830008840F002004D
:1043A000024908310880704704860D422C6C004099
:1043B00029B1504A128802434E4B1A8004E04D4AFC
:1043C000128882434B4B1A8070474A48001D008870
:1043D00040F010004749091D088070474548001DFE
:1043E00000884FF6EF7108404249091D0880704768
:1043F000002140481C300188001F008841EA00402D
:10440000704700B50246FFF7E0FF100C394918313C
:104410000880091D0A80FFF7E1FF00BD00B50246D4
:10442000FFF7D3FFC2F30340324908310880091D6A
:104430000A80FFF7D3FF00BD00B50246FFF7C5FFB6
:10444000100C2C4920310880091D0A80FFF7C6FF97
:1044500000BD00202749103109880907080B2549AC
:10446000143109880843704700BF2248001D0088A6
:1044700000F020000028F8D070471E48001D00887A
:104480004FF6F77108401B49091D088000BF194805
:10449000001D008800F008000028F8D07047014691
:1044A0000020144A121D12880A400AB1012000E0BF
:1044B000002070470F49091D098881430D4A121DCC
:1044C00011807047014600200A4A121D12880A40D6
:1044D000D0B2084A12880A4012B108B1012000E0A7
:1044E000002070470349091D09888143014A121DB4
:1044F0001180704700280040704700000FB41CB5C1
:10450000074B06AA7B4469460090059800F0FDF829
:104510000020694600F00CF91CBC5DF814FB00009B
:10452000290200002DE9F0410E46044600202062D9
:104530002046E168884730B3252805D0D4E9012119
:104540009047206A401CF2E7E16820460027884730
:10455000050018D0A5F14100192802D820354FF4E4
:1045600000673246294620462760FBF73FFE40B1F0
:10457000012804D0F61D26F007060836D8E7361DB8
:10458000D6E72846DAE7206ABDE8F08170B50C4628
:104590000546012A05D02878800600D5EA6900235F
:1045A00002E0012305E05B1C934202D2E05C00289C
:1045B000F9D1A869E618C01AA861286A18442862C7
:1045C0002846AFF3008004E0D5E9012114F8010B7F
:1045D0009047B442F8D32846AFF3008070BD10B5C1
:1045E000431C02E010F8011B71B18107FAD14FF0B2
:1045F000013202C88C1A8C4314EAC211F9D0C01AD5
:104600000A0603D0C01E10BDC01A10BD0A0401D096
:10461000801E10BD0902FCD0401E10BD421E12F8C3
:10462000013F002BFBD111F8013B002B02F8013BAD
:10463000F9D170474FF000020429C0F0128010F049
:10464000030C00F09280CCF1040CBCF1020F18BFF7
:1046500000F8012BA8BF20F8022BA1EB0C0100F001
:1046600084B85FEAC17C24BF00F8012B00F8012B5D
:1046700048BF00F8012B70474FF0013C50F8042B65
:1046800051F8043B9A4221D1A2EB0C03934313EA65
:10469000CC1317D150F8042B51F8043B9A4215D192
:1046A000A2EB0C03934313EACC130BD150F8042B69
:1046B00051F8043B9A4209D1A2EB0C03934313EA4D
:1046C000CC13DBD04FF00000704700BFD01A01BA06
:1046D000B1FA81F101F0180122FA01F0CB40C1F1E9
:1046E0002001DBB2C0B2C01A2CFA01F3D11A9143F7
:1046F00011EAC311E6D170477047704770477047A1
:1047000001694A1C02610878704700B58FB0CDE995
:1047100001310021059105497944CDE90310114685
:104720006846FFF7FFFE0FB000BD0000E5FFFFFF8A
:104730000A6802F8010B0A60704710B5436913B1AB
:10474000AFF3008001E0FFF721FF012010BD1278D8
:1047500000F124010A7000224A700122EDE711687D
:104760004FF0FF32E9E74FF0000200B513469446E0
:104770009646203922BFA0E80C50A0E80C50B1F1B9
:104780002001BFF4F7AF090728BFA0E80C5048BFCD
:104790000CC05DF804EB890028BF40F8042B08BF6B
:1047A000704748BF20F8022B11F0804F18BF00F867
:1047B000012B7047754600F02BF8AE4605006946A0
:1047C000534620F00700854618B020B5FDF7E4FDFC
:1047D000BDE820404FF000064FF000074FF0000802
:1047E0004FF0000B21F00701AC46ACE8C009ACE883
:1047F000C009ACE8C009ACE8C0098D46704710B5E7
:104800000446AFF300802046BDE81040FBF700BD32
:10481000004870477803002021F00042A2F1605266
:10482000B2F5801F01F0004328BFD2F17F6C0BD995
:104830005FEA001C43EAC20242EB507018BF7047A7
:1048400028BF20F001007047B2F5801FBCBF18469A
:1048500070474FEA410C1CF5001F02D2084600F0D9
:1048600022BF70B500F0FCFA00000089FFF7F6BF28
:104870004FF00040A0F580007047000010B591EAAD
:10488000030F48BF83F0004300F18883841A71EB63
:10489000030C05D2121943EB0C03001B61EB0C0156
:1048A000DFF824E14FEA1154A4EB135C1EEA430F36
:1048B00018BF9EEA445F73D023EA0E03DCF1200E9A
:1048C00021EA045143F4801332D322FA0CFE10EB98
:1048D0000E0023FA0CFE41EB0E01CCF1200E03FA80
:1048E0000EFE10EB0E0051F10001B1F5801FCCF16E
:1048F000200E32D201EB045112FA0EF2BDE8104044
:1049000058BF7047401C38BF5FEA420218BF70476B
:10491000002814BF20F0010041F100014FEA4103DB
:1049200013F5001F38BF7047A1F1C04100F0E6BA8F
:10493000012A43EB0302ACF1200CDCF11F0E32BF65
:104940004FF0000E23FA0CF310EB030041EB04517F
:10495000B4EB115FD0D0A1EB045101F580114908EF
:104960005FEA300001EB04510ED350F1000038BF74
:1049700012FA0EFE08D1BDE81040C9E7401C38BF4E
:104980005FEA4202CAD1C3E7BDE810404FEA4103E3
:1049900013F5001F38BF7047A1F1C04100F0AEBA57
:1049A0009EEA445F08D011EA5E0FBDE8104004BFE4
:1049B00001F0004100207047BDE8104070B500F0E4
:1049C0004FFA00BF64FBBE3E0000E0FF491058BF35
:1049D000C1F140415B1058BFC3F140438B42EFF33C
:1049E000008070472DE9C04130B4DFF8A0C23CEA36
:1049F000111418BF3CEA131400F0EC8081EA03059F
:104A00001CEA111444EAD57418BF1CEA131500F00F
:104A1000C780A4EB05044FF0004545EAC12145EAF3
:104A2000C32341EA505143EA525304F17F7499423F
:104A300004F500344FEAC0204FEAC22208BF90427A
:104A400000F09C804FEA13650FF24016765D4FEA46
:104A5000134506FB05F7C7F1807706FB07F74FEA1A
:104A6000D737A7FB03687642C8F58038A7FB06CE88
:104A700038BFA8F1010807FB08E64FF0000EA6FBBF
:104A8000028CE6FB03CEDCF1000CCEF1004E38BF09
:104A9000AEF1010EA6FB0C584FF000074FF00005D9
:104AA000E6FB0E87A1FB08C6A0FB07CE16EB0E06A1
:104AB00045F10005E1FB076515F1E04E7EBFA4F569
:104AC00080345FEA46066D4116F1800745F1000526
:104AD0004FEA17274FEA066647EA0567A6F1DE4662
:104AE000B6F1805F4FEA15251FD9384624F0010C36
:104AF00005EBC471BCF1FE6F01EB0C1102D8F0BCE8
:104B0000BDE8008124425CBF01F5801E9EEAC47F9F
:104B100002D4F0BCBDE80081244238D4F0BCA1F13D
:104B2000C041BDE8004100F0E9B94FEAD22242EAB3
:104B300043524FEAD323A7FB02864FEAD02040EA34
:104B4000415007FB03661EEA0E0F4FEAD12105FB19
:104B5000026658BFA6EB0056B6EB00564FEA520E5F
:104B60004EEAC37E18EB0E0E56EB530EBDD518EB76
:104B700002085E417F1C55F10005B6E74FF4801531
:104B80004FF000074FF000064FF00008ADE7F0BC13
:104B90004FF0000001F1C04101F00041BDE800818B
:104BA00011EA0C1F0CEA131500D00CE013EA0C1FDD
:104BB00000F025804FF00000F0BC81EA030101F015
:104BC0000041BDE80081F0BCBDE8004181EA03017D
:104BD00000F094B9F0BCBDE8004170B500F040F9B8
:104BE000097EFC3E00F007B881EA03014FF00000A7
:104BF00001F00041704781EA030100F07FB9F0BC89
:104C0000BDE800414FF0000021497047FFFDFBF96E
:104C1000F7F5F4F2F0EEEDEBE9E8E6E4E3E1E0DEEF
:104C2000DDDBDAD8D7D5D4D3D1D0CFCDCCCBCAC861
:104C3000C7C6C5C4C2C1C0BFBEBDBCBBBAB9B8B788
:104C4000B6B5B4B3B2B1B0AFAEADACABAAA9A8A87B
:104C5000A7A6A5A4A3A3A2A1A09F9F9E9D9C9C9B49
:104C60009A999998979796959594939392919190F4
:104C70008F8F8E8E8D8C8C8B8B8A89898888878785
:104C80008685858484838382828181800000FF07FA
:104C90000000F87F51EA030C17D41CF5801F58BFA1
:104CA000BCF5801F00F10680994218BF704708BF0D
:104CB0009042704707D711F5801F58BF13F5801F2A
:104CC00019D499427047894270471CF5801F08D556
:104CD000BCF5801FF7D58B4218BF704708BF8242D2
:104CE00070474FF4001C1CEB410F38BF1CEB430F07
:104CF00001D28B42704770B500F0B2F8922449009F
:104D00004FF000514FF08053FFF760BEDFF848C10D
:104D100070B51CEA111E1EBF1CEA13159EEA0C0F8B
:104D200095EA0C0F00F06F8081EA030423EA4C132C
:104D30004EEAD47E21EA4C1141F4801143F48013F1
:104D4000AE44A1FB024CA0FB0365AEF17F7E361999
:104D500055EB0C05A1FB034C4CF10003A0FB021C1E
:104D600016EB0C06654153F10003094218BF46F0EB
:104D7000010613F4007F0BD14FEA03314FEA0530EF
:104D8000340341EA155140EA16506FF003020AE07D
:104D90004FEAC3214FEAC520F40241EA555140EAE7
:104DA00056506FF0020202EB2E4201EB025585EAEB
:104DB000CE710AD05FEA440C18BF24F0004450F1D1
:104DC000000041F1000120EAD47040F2FE7C62450F
:104DD00000D270BDA84214BF4FF080444FF0404451
:104DE000002E08BF0024BEF1806FA8BFA1F1C04112
:104DF000BDE8704080F282804FF0000001F1C041B8
:104E000001F0004170479EEA0C0F0CEA131518BF21
:104E100095EA0C0F06D04FF0000081EA030E0EF069
:104E2000004170BD00F01CF88900013E00F007B899
:104E300000F009B84FEA430C5FEA5C5C08D081EAF5
:104E4000030100F05BB84FEA410C5FEA5C5CF6D10D
:104E50004FF00000014970470000FF070000F87F95
:104E60000EF1020E2EF0030E5EF8046B364205D4EE
:104E7000012A43EB030515F5001F12D8012841EB69
:104E8000010C1CF5001F0CD80ED14FEAD17C15F592
:104E9000001F0CEB4C0C0CF1020C08BF4CEBD37C4C
:104EA00004E04FF0080C01E04FEAD37C0CEB4C051A
:104EB00026FA05F606F00706B6F1040C06D20EEB4C
:104EC000860CBDE870404CF0010C6047DFE80CF048
:104ED000090B02024FF000414FF00000A1F5002144
:104EE00070BD19461046012851EB010418BFD4F5D6
:104EF000001484BF002001F0004170BD0808A0F537
:104F000000114FEA3101704753EA010C17D41CF528
:104F1000801F58BFBCF5801F00F106808B4218BF70
:104F2000704708BF8242704707D713F5801F58BFEC
:104F300011F5801F19D48B4270479B4270471CF5B6
:104F4000801F08D5BCF5801FF7D5994218BF704760
:104F500008BF904270474FF4001C1CEB430F38BF52
:104F60001CEB410F01D2994270470FB40CBC03BC3B
:104F7000FFF7C1BE91EA030F10B581F000413FF584
:104F800085AC83F0004300F009B8000010B591EA49
:104F9000030F48BF83F000433FF578AC841A71EBF0
:104FA000030C07D212198CF0004C43EB0C03001BCE
:104FB00061EB0C01DFF8A4E14FEA1154A4EB135CA0
:104FC0001EEA430F18BF9EEA445F00F0B08023EA58
:104FD0006E03524221EA0451C3EB6E0338BF5B1EDD
:104FE000DCF1200E25D322FA0CFE10EB0E0043FA62
:104FF0000CFE41EB0E01CCF1200E03FA0EFE10EB7D
:105000000E0051F10001CCF1200E29D412FA0EF25B
:1050100001EB0451BDE8104058BF7047401C1CBF55
:10502000B2F1004F704700280CBF491C20F001006E
:10503000704712EB020E43EB030218BF4FF0010E54
:105040004EEA4202ACF1200CDCF11E0E54D943FAB8
:105050000CFE10EB0E0051F1FF31CCF11E0ED5D538
:105060000EF1010E12FA0EFE404141EB010101EB7F
:10507000445C5FEA5C5C10D910EBDE7001EB04511C
:1050800038BFBEF1004FBDE8104018BF7047002880
:105090000CBF491C20F00100704730D24FEAD42CDD
:1050A00011F5001124F400641BD0B1FA81F20B3A1F
:1050B000A41AA41ED2F12003914030FA03F319433D
:1050C000904001EBCC71002C01EB0451BDE8104085
:1050D000A8BF704701F1C0414FF0000001F000414E
:1050E0007047B0FA80F310FA03F100D110BDE41A52
:1050F000173C4805C90AE4E701EB045110BD49100B
:1051000001EB0451BDE810404FEA300002E04FF0DF
:10511000000170474A0008BF0042F8D0B2F5001FF6
:1051200028BF704701F000414FF0000070479EEA31
:10513000445F07D011EA5E0FBDE8104004BF0021B4
:1051400000207047BDE8104070B5FFF789FE00BF32
:1051500040DFF63E83F00041104670470000E0FF5C
:1051600043004FEAD30C4FEA3C0C43401FBF4007BB
:105170000CF1605113F0FE4F70471CF0006F03D12B
:1051800000200CF0004170470CF0004343EA5070DF
:1051900010B540EACC0000F040FA00BF00000092D9
:1051A0004FEA0001FFF7AABE4FF000414FF00000A8
:1051B000A1F500217047000090EA010F48BF81F07F
:1051C000004100F1AE82421A3CBF801A89184FEAB2
:1051D000D0524FF07F4C1CEA410FA2EBD15318BFC5
:1051E0009CEA026F00F03B804FF0004C4CEA00203C
:1051F0004CEA012121FA03FC10EB0C0C1ED202F147
:10520000FF325FEA1C2040EBC25038BF70471CF0F1
:105210007F0F4FEA400C18BFBCF17F4F38BF70477B
:10522000C3F12003994008BF20F00100BCF17F4F7B
:1052300038BF7047A0F1C04000F035BA4FEA3C00DB
:10524000000A40EBC25028BF1CF0FF0F4FEA400C91
:10525000E6D018BFBCF17F4F38BF7047EAE79CEA41
:10526000026F05D010EA5C0F08BF00F000407047E5
:1052700010B500F0D2F900BF64FBBE3E401058BF2D
:10528000C0F14040491058BFC1F140418142EFF3A5
:10529000008070474FF47F0C1CEAD0121EBF1CEA3E
:1052A000D11392EA0C0F93EA0C0F00F0858090EA7C
:1052B000010F48BF42F4807240F4000C41F400003A
:1052C0002CF07F4120F07F4000B58142A2EB030229
:1052D0000FF2081CACEB504EC0F100009EF800E04D
:1052E0004FEA4E0E00FB0EFC38BF49004FEA2C1C63
:1052F00002F5FA020CFB0EF34FEACE1E4FEA112C18
:105300004FEAC1210EEB635E42EB22420EFB0CFC26
:105310004FEA1C5300FB03114FEA112C4FEA0131F5
:105320000EFB0CFC4FEADC4C00FB0C11C14228BF09
:1053300009184CEB03335DF804EB10EB410143EB30
:10534000C250B2F57C0F38BF704729D512F0F00F6C
:105350001CBF00F1C04000F0004070470081828314
:105360008485868788898B8C8D8E8F919293959674
:1053700097999A9C9D9FA0A2A3A5A7A8AAACAEB0FE
:10538000B2B3B5B7B9BCBEC0C2C5C7C9CCCED1D403
:10539000D7D9DCDFE2E6E9ECF0F3F7FAFE00000033
:1053A0004FEA400C0CF1807CBCF17E4F28BF704767
:1053B000B0F1C04000F077B990EA010F0CEAD113C8
:1053C00048BF42F48072624538BF634507D213F488
:1053D0007F0F16D080EA010000F00040704710B542
:1053E00000F01BF9097EFC3E00F005B880EA0100E0
:1053F00000F00040704780EA010000F0004000F03B
:1054000052B912F47F0F04BF0248704780EA0100CE
:1054100000F049B90000C07FC10DD1F19E0206DB4A
:105420004FEA002343F0004323FA02F070470042A2
:1054300007D54FEA4001B1F1FE4F02D24FF0000014
:10544000704710B500F0E9F84992248000207047B9
:105450006FEA20007047000010F0004148BF404252
:10546000B0FA80F310FA03F2C3F19D030BD051EAB6
:10547000C35101EB1220530638BF704700F1010001
:1054800008BF20F001007047B0FA80F310FA03F271
:10549000C3F19D030AD0D90501EB1220530638BF92
:1054A000704700F1010008BF20F0010070470000C4
:1054B00050EA010C00F113801CF5000F58BFBCF539
:1054C000000F01D48842704707D710F5000F58BF6E
:1054D00011F5000F15D488427047894270471CF5BA
:1054E000000F04D5BCF5000FF7D5814270474FF08F
:1054F000807C1CEB400F38BF1CEB410F01D2814276
:10550000704710B500F089F8922449004FF0005020
:105510004FF08051FFF7B2BE4FF47F0C1CEAD0125F
:105520001EBF1CEAD11392EA0C0F93EA0C0F00F095
:10553000478090EA010F48BF42F480724FF0004C60
:105540004CEA00204CEA012102EB0302A0FB01130C
:10555000A2F50002002918BF43F001035B0028BF39
:105560004FEA330342EB22425FEA132C4CEBC2506A
:105570002EBFBCEB436FB2F57C0F70474FEA036C54
:10558000BCF1004F08BF20F00100B2F57C0F38BF1E
:1055900070470BD582F0FF0212F5803FC8BF7047FD
:1055A00000F1C040D8BF00F00040704700F5000C8B
:1055B0005FEA4C0C48BF7047B0F1C04000F073B8D0
:1055C00090EA010F0CEAD11348BF42F480726245A1
:1055D00038BF634504D280EA010000F00040704704
:1055E00010B500F01AF800BF8900013E00F007B8BE
:1055F00000F009B85FEA410C5FEA1C6C08D080EA51
:10560000010000F050B85FEA400C5FEA1C6CF6D174
:105610004FF00040A0F5800070470EF1020E2EF012
:10562000030E5EF8044B244204D44FEA4102B2F167
:105630007F4F11D84FEA4003B3F17F4F0CD80ED102
:105640004FEAD07CB2F17F4F0CEB4C0C0CF1020C0A
:1056500008BF4CEBD17C04E04FF0080C01E04FEAAE
:10566000D17C0CEB4C0324FA03F404F00704B4F1EE
:10567000040C06D20EEB840CBDE810404CF0010C7B
:105680006047DFE80CF0070802024FF00040A0F589
:10569000800010BD0846420018BFD2F1807288BF5A
:1056A00000F0004010BDFF2141EAD050C005704716
:1056B00051EA000C00F113801CF5000F58BFBCF537
:1056C000000F01D48142704707D711F5000F58BF72
:1056D00010F5000F15D481427047894270471CF5C0
:1056E000000F04D5BCF5000FF7D5884270474FF086
:1056F000807C1CEB410F38BF1CEB400F01D288426D
:10570000704780EA010081EA000180EA0100FFF7AA
:10571000F8BE000090EA010F48BF81F000413FF55C
:1057200052AD421A04D882F00042A0EB02001144AC
:105730004FEAD0524FF07F4C1CEA410FA2EBD153FD
:1057400018BF9CEA026F4AD04FF0004C4CEA002090
:105750004CEA012121FA03FCB0EB0C0C0FD412F03F
:10576000FE0F36D05FEA4C001DD5001240EBC25050
:1057700038BF70471CF03F0F18BF70470BE0A2F115
:1057800001025FEA1C2040EBC25038BF70471CF09A
:105790007F0F18BF7047C3F12003994014BF401E0C
:1057A00020F00100704780084FEA122308BF7047BD
:1057B000B0FA80FCA2EB0C02CCF1280C60FA0CF0E1
:1057C00093EA122F04BF00EBC25070474FEAC37038
:1057D0007047130A5FEADC1008BF7047F6E79CEADF
:1057E000026F04D010EA5C0F08BF0020704710B5AC
:1057F000FFF713FF40DFF63E81F0004070470000E6
:105800002058000800000020D00200006C010008B1
:1058100024590008D002002008070000D001000829
:105820006200016004A24A040B103C01020304065A
:10583000070809000440048004C004FE043C057904
:1058400005B405ED05240659068C06BC06EA0614C7
:10585000073C07600780079E07B707CD07DF07ED06
:1058600007F707FD07FF0412F70C12DF1412B71C2D
:1058700012802410063C071407EA34128C3C1004F2
:105880002406ED48100679053C05FE58128060108C
:10589000340004C00380034003F801C402A7014C94
:1058A0000259013E011301FA00D40016019E00C402
:1058B000007000800062003B0029001B00130009FB
:1058C000000300010412090C121B14123B1C12806D
:1058D000241004C4009E301006D400FA00134012B5
:1058E000594812A7501004F801405C1160018386EA
:1058F00005404E01848605404E4971326402F00431
:1059000008070001000C1D3031323334353637388A
:1059100039000129AA69AE00070002040608000048
:045920000000000083
:0400000508000131BD
:00000001FF
